:100000000C9434000C9449000C9449000C94490061
:100010000C9449000C9449000C9449000C9449003C
:100020000C9449000C9449000C9449000C9449002C
:100030000C9449000C9449000C9449000C9449001C
:100040000C9449000C9449000C9449000C9449000C
:100050000C9449000C9449000C9449000C944900FC
:100060000C9449000C94490011241FBECFEFD8E036
:10007000DEBFCDBF11E0A0E0B1E0E4E3F1E002C0FB
:1000800005900D92A830B107D9F70E944B000C944F
:1000900098000C940000E0E0F1E041E050E024B171
:1000A00080813296BA0102C0660F771F8A95E2F707
:1000B000CB01822B84B971E0E830F70781F741E08A
:1000C00050E0E0E0F1E025B180813296BA0102C053
:1000D000660F771F8A95E2F7CB01822B85B971E015
:1000E000E830F70781F78FEF99E628E181509040DB
:1000F0002040E1F700C00000E0E0F1E095B1808130
:1001000032969A0101C0220F8A95EAF7822F8095D4
:10011000892385B961E0E830F60781F77FEF89E64A
:1001200098E1715080409040E1F700C00000C9CFD5
:04013000F894FFCF71
:080134000200030004000500B5
:00000001FF
