:100000000C9434000C9449000C9449000C94490061
:100010000C9449000C9449000C9449000C9449003C
:100020000C9449000C9449000C9449000C9449002C
:100030000C9449000C9449000C9449000C9449001C
:100040000C9449000C9449000C9449000C9449000C
:100050000C9449000C9449000C9449000C944900FC
:100060000C9449000C94490011241FBECFEFD8E036
:10007000DEBFCDBF11E0A0E0B1E0E6E1F1E002C0FB
:1000800005900D92AC30B107D9F70E944B000C944B
:1000900089000C940000E0E0F1E041E050E024B180
:1000A00080813296BA0102C0660F771F8A95E2F707
:1000B000CB01822B84B971E0EC30F70781F741E086
:1000C00050E0E0E0F1E025B1DF01CA01008002C0AC
:1000D000880F991F0A94E2F7822B85B98FEF92E57A
:1000E00027E0815090402040E1F700C0000095B12A
:1000F00032969A010C9002C0220F331F0A94E2F745
:10010000822F8095892385B961E0EC30F607D9F616
:06011000D8CFF894FFCFE8
:0C011600020003000400050004000300C8
:00000001FF
